:020000040800F2
:100000005804002069100008C10F0008C30F000841
:10001000C50F0008C70F0008C90F00080000000046
:10002000000000000000000000000000CB0F0008EE
:10003000CD0F000800000000CF0F0008D10F00080E
:10004000891000088D100008911000089510000814
:10005000991000089D100008A1100008A5100008C4
:10006000A9100008AD100008B1100008B510000874
:10007000B9100008BD100008C1100008C510000824
:10008000C9100008CD100008D1100008D5100008D4
:10009000D9100008DD100008E1100008E510000884
:1000A000E9100008D50F0008ED100008F110000855
:1000B000F5100008F9100008FD10000801110008F3
:1000C00005110008091100080D11000811110008A0
:1000D00015110008191100081D1100082111000850
:1000E00025110008291100082D1100082DE9F843F9
:1000F000040016D02078DFF84C64C10713D570686F
:1001000000F00C00042807D0706800F00C000828EC
:1001100041D17068C1033ED53068810303D5606862
:10012000002800F064812078DFF82874810719D551
:10013000706810F00C0F07D0706800F00C000828F1
:1001400061D17068C1035ED43068810703D520692E
:10015000012840F04C813168606921F0F80141EAE2
:10016000C00131602178080740F18180A069DFF883
:10017000E813002800F0A68001220A6000F016FAB9
:100180000546706A810763D400F010FA401B02280C
:10019000F7D903202EE16068B0F5803F04D13068C4
:1001A00040F48030306014E008B930680AE0B0F5FF
:1001B000A02F306806D140F480203060316841F4CF
:1001C000803105E020F480303060316821F48021F6
:1001D0003160606858B100F0E9F905463068810384
:1001E000A1D400F0E3F9401B6528F7D3D1E700F074
:1001F000DDF905463068810395D500F0D7F9401B3D
:100200006528F7D3C5E72069A8B10121396000F05E
:10021000CDF905463068810705D400F0C7F9401BC9
:100220000228F7D9B5E73068616920F0F80040EAA4
:10023000C100306096E7386000F0B8F905463168D3
:1002400088078FD500F0B2F9401B0228F7D9A0E744
:10025000DFF8F4020168C9084FF47A72B1FBF2F2D8
:10026000009200BF0098411E00280091F9D120782B
:1002700041076ED5F0690025C10009D4F06940F04E
:100280008050F0610125F06900F0805000900098E6
:10029000DFF8C882D8F80000C10520D4D8F80000E3
:1002A00040F48070C8F8000000F080F98146D8F86A
:1002B0000000C10513D400F079F9A0EB090065280E
:1002C000F5D366E7086000F071F90546706A8107AA
:1002D000CDD500F06BF9401B0228F7D959E7E0684B
:1002E000012808D008B9306A09E00528306A06D12B
:1002F00040F004003062306A40F0010005E0400840
:1003000040003062306A20F00400306241F28938E7
:10031000E06860B100F04AF98146306A810713D481
:1003200000F044F9A0EB09004045F6D331E700F0B6
:100330003DF98146306A810706D500F037F9A0EB18
:1003400009004045F6D324E71DB1F06920F0805044
:10035000F061E06900284CD0716801F00C010829B7
:1003600038D002282AD100F047F8054630688101CC
:1003700005D500F01BF9401B0228F7D909E7206AD0
:10038000B0F5803F05D17168A06821F400310143C8
:1003900071607268206A616A22F4741202430A432F
:1003A0007260012000F029F804463068810120D4F1
:1003B00000F0FCF8001B0228F7D9EAE600F01CF870
:1003C00004463068810114D500F0F0F8001B0228C3
:1003D000F7D9DEE601280AD07068226A00F480317D
:1003E000914202BF00F47010616A884201D001207E
:1003F00000E00020BDE8F2830020386600F0D6B8A7
:100400002DE9F041040088464ED0554E00F077F8B3
:1004100002D200F06FF847D120684A4D810712D50B
:10042000400703D5696841F4E061696020780107FD
:1004300003D5686840F4605068606968A06821F07E
:10044000F001014369602178C80725D5606801285B
:1004500002D129688A0303E00228296802D18A01AF
:1004600002D421E08A071FD56968890840EA810023
:10047000686000F09BF807466868616800F00C004F
:10048000B0EB810F08D000F091F8C01B41F2893128
:100490008842F1D303202BE0306800F0070080454C
:1004A00004D200F027F801D0012021E02078410794
:1004B00005D56A68E06822F4E06202436A60217848
:1004C000080706D56968206921F4605141EAC00136
:1004D000696000F019F86A6822491B4BC2F30312E5
:1004E000895CC84018601A48006800F065F8002070
:1004F000BDE8F0813168C90848EAC101316030685F
:1005000000F0070040457047174910480A6802F09C
:100510000C03082B00D0704710B500BF14A4C2F321
:100520008343D203E35C08D50968584314A3C1F39D
:1005300040415A5CB0FBF2F010BD18460B494843ED
:1005400010BD0000001002400C00002000127A00D4
:100550000800002000004242800442420070004037
:1005600000200240581000080410024000093D001D
:1005700002030405060708090A0B0C0D0E0F1010E4
:1005800001020EE002684368024408305FEAC37C5F
:1005900044BF4B445B1E52F804CB43F804CB091F05
:1005A000F9D150F8041B0029ECD17047014840688C
:1005B000704700BF0000002038B50D4D0D4B2A7864
:1005C00004464FF47A711868B1FBF2F2B0FBF2F016
:1005D00000F054F850B9102C08D2002221464FF0F8
:1005E000FF3000F023F8AC60002032BD012032BDA6
:1005F000000000200C0000200901020002D429485C
:1006000081547047284B02F00F021A4402F8041C70
:100610007047264B19684FF6FF020002114000F4A4
:10062000E0600843224908431860704770B51F4BCB
:100630001C68C4F302230124C3F10705052D2EBF56
:100640000F2504FA05F56D1E1E1D072E34BF00236D
:10065000DB1E2940994004FA03F3BDE870405B1E9D
:100660001A401143C8E7010007D4012200F01F011E
:10067000104B8A40400943F82020704710B5401EB7
:10068000B0F1807F01D3012010BD0B4C60600F21C1
:100690004FF0FF30FFF7B0FF0021A160072020607E
:1006A000002010BD00E400E018ED00E00CED00E0DB
:1006B0000000FA0500E100E010E000E038B50400B9
:1006C00001D1012032BD00F049F818B900F04EF90F
:1006D00000F0DDF92AE090F83D10012901D0012059
:1006E0007047022180F83D100168CA6842F001029B
:1006F000CA600168DFF85C20914218BFB1F1804FF9
:1007000007D0DFF8542091421CBFDFF858309942DF
:1007100005D1896801F00701062905D001680A683A
:10072000084642F001020260002070470220687013
:10073000211D206800F01EF90120A8720121A97076
:10074000E87029716871A971E8712972687269701D
:10075000002032BD002C01400004004004F13C05A3
:10076000687870470008004010B5044620680169A9
:100770008A0715D5C1688A0712D56FF00201016199
:1007800001222277806910F0030F204602D000F08A
:100790009FF903E000F09DF900F087F80020207732
:1007A000206801694A0715D5C1684A0712D56FF05C
:1007B0000401016102222277806910F4407F204603
:1007C00002D000F085F903E000F083F900F06DF845
:1007D00000202077206801690A0715D5C1680A073B
:1007E00012D56FF00801016104222277C06910F070
:1007F000030F204602D000F06BF903E000F069F926
:1008000000F053F80020207720680169CA0615D54A
:10081000C168CA0612D56FF0100101610822227763
:10082000C06910F4407F204602D000F051F903E087
:1008300000F04FF900F039F80020207720680169B6
:10084000CA0708D5C168CA0705D56FF00101016163
:10085000204600F03FF9206801690A0608D5C16802
:100860000A0605D56FF080010161204600F0EBF922
:10087000206801694A0608D5C1684A0605D56FF0A7
:1008800040010161204600F0DFF9206801698A0615
:100890000AD5C1688A0607D56FF02001016120469C
:1008A000BDE8104000F0D1B910BD204600F0CEB92F
:1008B00070B5064606F13C0500242878012801D1D0
:1008C000022070BD0120287002226A70DFF8040146
:1008D00032689368034093600868020018BF1028CC
:1008E00030D0202818BF30282CD0402826D05028BF
:1008F00019D060281BD0702806D0B0F5805F27D0B3
:10090000B0F5005F07D022E000F02BF83068816876
:1009100041F0770105E000F024F83068816841F487
:100920008041816014E000F018F850210BE0CA68A3
:100930004968306800F067F8602104E000F00DF8C5
:10094000402100E00146306800F06FF800E001242B
:100950000120687000F00AF870BDCA684968306804
:1009600042E0CB684A688968306866E000212970F7
:100970002046704770B50368174E184C184DB042AA
:1009800018BFB0F1804F03D0A84218BFA04209D1D0
:100990004A6823F070031343B0421CBFB0F1804F8C
:1009A000A84201D0A04203D1CA6823F44073134384
:1009B0004A6923F0800313430360B0428B68C3622B
:1009C0000A68826202D10969064A11600123436103
:1009D00070BD00008800FFFF002C014000080040AF
:1009E00000040040302C014010B5036A046A64081A
:1009F0006400046223F00A03846924F0F00444EAEA
:100A00000214846123E010B5036A046A24F0100420
:100A1000046223F0A003846924F4704444EA02349D
:100A2000846143EA0113036210BD826822F0700200
:100A3000114341F007018160704710B5846824F4C8
:100A40007F442143114341EA0321816010BD1943D2
:100A5000016210BD1B4881B0016841F001010160D5
:100A6000026802F0010200920099426842F080524E
:100A70004260406800F08050009000981248016881
:100A800021F0E06141F00071016001B07047006841
:100A90000E49884200D0704780B50A48026842F487
:100AA000006202600022006800F4006000900021F3
:100AB00000981920FFF7BAFDBDE802401920FFF7A2
:100AC000D2BD00001810024004000140002C01407B
:100AD0007047704700683D49884204D14FF4005187
:100AE0003B4800F087B9704710B586B000F0A4F914
:100AF00000F074F81022002101A800F0AFF9354889
:100B0000334C016841F010010160026802F01002EC
:100B100000920099026842F020020260036803F02C
:100B2000200300930099026842F004020260002250
:100B3000006800F0040000904FF400510098204637
:100B400000F054F94FF4005101910122029200216A
:100B500003910322049201A9204600F079F81022A3
:100B6000002102A800F07AF908220021684600F06E
:100B700075F9194C154820604FF434714CF250301F
:100B80000022E0606160A26022616261A261204691
:100B9000FFF794FD08B100F054F84FF48050029034
:100BA00002A92046FFF784FE08B100F04AF80021B0
:100BB000009101912046694600F05AF908B100F011
:100BC00040F82046FFF787FDFEE70000002C0140BB
:100BD00000100140181002401000002000B58FB036
:100BE0002822002105A800F039F9142200216846C6
:100BF00000F034F94FF480310022069107920D91F4
:100C000001200590099002224FF4E0110C920E9100
:100C100005A8FFF76BFA08B172B6FEE70221019151
:100C20000F204FF480610090002203910292049201
:100C300002216846FFF7E4FB08B172B6FEE70FB089
:100C400000BD72B6FEE770477047704770470000FE
:100C50002DE9F8474FF0000E00246A4A6A4BDFF88E
:100C6000AC814FF00F0982460DE0176838401060E4
:100C700007E0C2F804C04D68ED03F6D510680743DD
:100C800017600EF1010E0F6837FA0EF000F0AC801D
:100C9000012000FA0EFC0CEA07076745F1D148680D
:100CA00038B301281AD002281DD003282ED01128CD
:100CB00016D012281AD0564DA8421CBF554DA84236
:100CC00017D0554DA8421CBF544DA84211D0544DC9
:100CD000A8421CBF534DA8420BD018E0CC6816E0C8
:100CE000CC68241D13E0CC68083410E0CC680C34C8
:100CF0000DE0886808B9042409E0012819BF082418
:100D0000CAF814C00824CAF810C000E00024B7F5DF
:100D1000807F03D250464FEA8E0C05E0AEF1080505
:100D20000AF104004FEA850C056809FA0CF6B54390
:100D300004FA0CF646EA050CC0F800C04868C0008A
:100D40009FD5D8F8000040F00100C8F80000D8F89E
:100D5000005005F0010500954FEA8E0500984FEA16
:100D60009E0053F8206005F00C0C09FA0CF526EAF9
:100D700005052D4EB24508BF00260ED02B4EB245BC
:100D800008BF012609D02A4EB24508BF022604D06A
:100D9000284EB2450CBF0326042606FA0CF646EA96
:100DA000050C43F820C0F8434D68D2F808C0ED02A6
:100DB0004CBF47EA0C0C00EA0C0CC2F808C04D68A6
:100DC000D2F80CC0AD024CBF47EA0C0C00EA0C0C88
:100DD000C2F80CC04D68D2F804C0AD034CBF47EA5E
:100DE0000C0C00EA0C0C44E7BDE8F18702B90904D9
:100DF00001617047C26801EA0203914341EA03417D
:100E000001617047000401400800014018100240D1
:100E1000000011100000121000002110000022102C
:100E2000000031100000321000080140000C0140A9
:100E3000001001400014014080B50748016841F0EE
:100E4000100101600320FFF7E4FB0F20FFF7B4FB64
:100E5000FFF700FE002002BD0020024010B504464E
:100E600010460A460146204600F034F8204610BDE0
:100E700070B500F13C031A78012A01D1022070BD3F
:100E800001221A7002245C7005686E68AC680A68FA
:100E900026F0700616436E6002680B48824218BF47
:100EA000B2F1804F05D0094882421CBF084DAA42CA
:100EB00004D1486824F080040443946001215970EF
:100EC0000020187070BD0000002C0140000400409C
:100ED0000008004062F30F2262F31F42401810F036
:100EE000030308D0C91A1FD3DB0748BF00F8012D40
:100EF00028BF20F8022D130030B4144615461039CF
:100F000028BF20E93C00FAD8490728BF20E90C0097
:100F100048BF40F8042D890028BF20F8022D48BFA3
:100F200000F8012D30BC7047C91818BF00F8012D1A
:100F3000CB0728BF00F8012D704730B4002512E020
:100F400050F8042BD30744BF4A44521E091F0429FA
:100F500042F8045BFAD213468C0744BF15809B1CF1
:100F6000C90748BF1D7050F8041B0029E8D130BCE8
:100F70007047000010B5074979441831064C7C448D
:100F8000163404E00A68081D114488470146A1424E
:100F9000F8D110BD08000000280000009FFFFFFFEF
:100FA000480000001000002000000000D7F5FFFFFF
:100FB00010000000C400000000000020000000003D
:100FC000FEE7FEE7FEE7FEE7FEE770477047704783
:100FD00000F006B80148FFF7C7BB00001000002072
:100FE00002494A68087882184A6070470000002069
:100FF00000F00DF8002801D0FFF7BCFFAFF3008030
:101000000020AFF30080FFF76FFD00F002F8012031
:10101000704700F001B800000746384600F002F8BB
:10102000FBE7000080B5AFF30080024A11001820F2
:10103000ABBEFBE7260002000548014603B4684644
:1010400080F30988AFF30080AFF30080FFF7D0FF93
:10105000A5EDF5FE70470000000000000000000054
:1010600001020304060708090148804701480047B8
:1010700055100008391000080100000000000000B1
:10108000100000000024F400FFF7FEBFFFF7FEBFD2
:10109000FFF7FEBFFFF7FEBFFFF7FEBFFFF7FEBF84
:1010A000FFF7FEBFFFF7FEBFFFF7FEBFFFF7FEBF74
:1010B000FFF7FEBFFFF7FEBFFFF7FEBFFFF7FEBF64
:1010C000FFF7FEBFFFF7FEBFFFF7FEBFFFF7FEBF54
:1010D000FFF7FEBFFFF7FEBFFFF7FEBFFFF7FEBF44
:1010E000FFF7FEBFFFF7FEBFFFF7FEBFFFF7FEBF34
:1010F000FFF7FEBFFFF7FEBFFFF7FEBFFFF7FEBF24
:10110000FFF7FEBFFFF7FEBFFFF7FEBFFFF7FEBF13
:10111000FFF7FEBFFFF7FEBFFFF7FEBFFFF7FEBF03
:10112000FFF7FEBFFFF7FEBFFFF7FEBFFFF7FEBFF3
:0400000508001039A6
:00000001FF
